{
  "contractName": "Adoption",
  "abi": [
    {
      "inputs": [
        {
          "internalType": "uint256",
          "name": "",
          "type": "uint256"
        }
      ],
      "name": "adopters",
      "outputs": [
        {
          "internalType": "address",
          "name": "",
          "type": "address"
        }
      ],
      "stateMutability": "view",
      "type": "function"
    },
    {
      "inputs": [
        {
          "internalType": "uint256",
          "name": "petId",
          "type": "uint256"
        }
      ],
      "name": "adopt",
      "outputs": [
        {
          "internalType": "uint256",
          "name": "",
          "type": "uint256"
        }
      ],
      "stateMutability": "nonpayable",
      "type": "function"
    },
    {
      "inputs": [],
      "name": "unadoptAll",
      "outputs": [
        {
          "internalType": "address[16]",
          "name": "",
          "type": "address[16]"
        }
      ],
      "stateMutability": "nonpayable",
      "type": "function"
    },
    {
      "inputs": [],
      "name": "getAdopters",
      "outputs": [
        {
          "internalType": "address[16]",
          "name": "",
          "type": "address[16]"
        }
      ],
      "stateMutability": "view",
      "type": "function"
    }
  ],
  "bytecode": "0x608060405234801561001057600080fd5b506103f6806100206000396000f3fe608060405234801561001057600080fd5b506004361061004c5760003560e01c80631b2f8c90146100515780633de4eb171461009757806343ae80d3146100dd5780638588b2c51461014b575b600080fd5b61005961018d565b6040518082601060200280838360005b83811015610084578082015181840152602081019050610069565b5050505090500191505060405180910390f35b61009f610278565b6040518082601060200280838360005b838110156100ca5780820151818401526020810190506100af565b5050505090500191505060405180910390f35b610109600480360360208110156100f357600080fd5b81019080803590602001909291905050506102f9565b604051808273ffffffffffffffffffffffffffffffffffffffff1673ffffffffffffffffffffffffffffffffffffffff16815260200191505060405180910390f35b6101776004803603602081101561016157600080fd5b810190808035906020019092919050505061032c565b6040518082815260200191505060405180910390f35b61019561039d565b60008090505b60108110156101fe5760008082601081106101b257fe5b0160006101000a81548173ffffffffffffffffffffffffffffffffffffffff021916908373ffffffffffffffffffffffffffffffffffffffff160217905550808060010191505061019b565b50600060108060200260405190810160405280929190826010801561026e576020028201915b8160009054906101000a900473ffffffffffffffffffffffffffffffffffffffff1673ffffffffffffffffffffffffffffffffffffffff1681526020019060010190808311610224575b5050505050905090565b61028061039d565b60006010806020026040519081016040528092919082601080156102ef576020028201915b8160009054906101000a900473ffffffffffffffffffffffffffffffffffffffff1673ffffffffffffffffffffffffffffffffffffffff16815260200190600101908083116102a5575b5050505050905090565b6000816010811061030657fe5b016000915054906101000a900473ffffffffffffffffffffffffffffffffffffffff1681565b600080821015801561033f5750600f8211155b61034857600080fd5b336000836010811061035657fe5b0160006101000a81548173ffffffffffffffffffffffffffffffffffffffff021916908373ffffffffffffffffffffffffffffffffffffffff160217905550819050919050565b60405180610200016040528060109060208202803883398082019150509050509056fea2646970667358221220bda2a9cc6d30ad129ee1f865c5a8a13eae508faa81d29085db1336d829621b5a64736f6c63430006000033",
  "source": "pragma solidity 0.6.0;\n\ncontract Adoption {\n  address[16] public adopters;  // Adopting a pet\n\n  function adopt(uint petId) public returns (uint) {\n    // check that petId is in range of our adopters array\n    require(petId >= 0 && petId <= 15);    // add the address who called this function to our adopter array\n    adopters[petId] = msg.sender;    // return the petId provided as a confirmation\n    return petId;\n  }  // Retrieving the adopters\n\n  function unadoptAll() public returns (address[16] memory) {\n    for (uint i=0; i<16; i++) {\n      adopters[i] =  address(0);\n    }\n    return adopters;\n  } \n\n  function getAdopters() public view returns (address[16] memory) {\n    return adopters;\n  }\n}\n\n",
  "sourcePath": "/Users/coryschulz/Code/pet-shop/contracts/Adoption.sol",
  "compiler": {
    "name": "solc",
    "version": "0.6.0+commit.26b70077.Emscripten.clang"
  },
  "schemaVersion": "3.3.4",
  "updatedAt": "2021-05-03T12:59:37.444Z",
  "devdoc": {
    "methods": {}
  },
  "userdoc": {
    "methods": {}
  }
}